:1000000000000320D10100005D2000001520000049
:10001000152000001520000015200000152000000C
:100020001520000015200000152000005D200000B4
:100030005D200000152000005137000055370000FA
:100040005D2000005D2000005D2000005D200000BC
:100050005D2000005D2000005D2000005D200000AC
:100060005D2000005D2000005D2000005D2000009C
:100070005D2000005D2000005D2000005D2000008C
:100080005D2000005D2000005D2000005D2000007C
:100090005D2000005D2000005D2000005D2000006C
:1000A000AD3E0000B93E00005D2000005D20000074
:1000B0005D2000005D2000005D2000005D2000004C
:1000C0005D2000005D2000005D2000005D2000003C
:1000D0005D2000005D2000005D2000005D2000002C
:1000E0005D2000005D2000005D2000005D2000001C
:1000F0005D2000005D2000005D2000005D2000000C
:100100005D2000005D2000005D2000005D200000FB
:100110005D200000612600005D2000005D200000E1
:100120005D2000005D2000005D2000005D200000DB
:100130005D2000005D2000005D2000005D200000CB
:100140005D2000005D2000005D2000005D200000BB
:100150005D2000005D2000005D2000005D200000AB
:100160005D2000005D200000C53E00005D20000015
:100170005D2000005D2000005D2000005D2000008B
:100180005D2000005D2000005D2000005D2000007B
:100190005D2000005D2000005D2000005D2000006B
:1001A0005D2000005D2000005D2000005D2000005B
:1001B0005D2000005D2000005D2000005D2000004B
:1001C0005D2000005D2000005D2000005D2000003B
:1001D0005C4B4CF2205210B51A804DF628121A8052
:1001E00000BF00BF01F03EFF574B4FF030621A6076
:1001F000564A9A60564ADA60564B4FF470021A60BB
:10020000554B564A1A60564B1A78110703D51A787F
:1002100042F008021A70534B5349AA221A70534AEB
:10022000534B8B4204D252F8040F43F8040BF8E707
:10023000504B514900228B4202D243F8042BFAE77B
:100240004E494F4A002352F8230041F8230001335E
:10025000742BF8D14B4B4C4A802103F8011B93427D
:10026000FBD14A4B454A1A60494B8A221A70A3F5C2
:10027000805324225A70A0221A709A799207FCD5D2
:100280009A79D406FCD4434A937903F00C03082BE3
:10029000FAD1414B60221A7002331A78802AFCD1BD
:1002A0003C4B01221A715D225A719A799006FCD555
:1002B0009979384A4906FBD5384B394919600021EC
:1002C000596020231370937903F00C030C2BFAD19F
:1002D000344B354A1A60354A354C136813F4807331
:1002E00003D123604FF4A8531360324B324A1A6093
:1002F00000225A60072243F8042C304AC3F80C2D20
:1003000062B602F01DF82368DA0705D52C4801F023
:1003100083FF2C4B2C4A1A602C4B1B785B0609D5AB
:10032000284C294B22689A4204D1254801F074FFD9
:100330000023236004F086FF01F09AFE01F0C8FD5F
:10034000FEE700BF0E20054030800440823F0400DD
:100350000100002B88ED00E0002008E0030000858C
:1003600002D0074000E00740B411FF1FD85F000033
:100370003007FF1FB411FF1F1C14FF1F0002FF1FD7
:100380000000000000E400E064E400E008ED00E0AC
:10039000005006400040064001E007404480044011
:1003A0000000060204800440C010070010D0034083
:1003B00014D0034014E000E01FBF02000000202022
:1003C000D11376601CE00340A5C3945A00F00740A7
:1003D000FFFFFFFFFFFFFFFFFFFFFFFFFFFFFFFF2D
:1003E000FFFFFFFFFFFFFFFFFFFFFFFFFFFFFFFF1D
:1003F000FFFFFFFFFFFFFFFFFFFFFFFFFFFFFFFF0D
:10040000FFFFFFFFFFFFFFFFFFFFFFFFDEF9FFFF23
:1004100010B5054C237833B9044B13B10448AFF33E
:1004200000800123237010BDB411FF1F00000000E5
:10043000DC5F0000084B10B51BB108490848AFF35A
:1004400000800848036803B910BD074B002BFBD0A0
:10045000BDE81040184700BF00000000B811FF1FA2
:10046000DC5F0000B411FF1F0000000060EEA07A06
:1004700060EE216AB0EE676AA0EE006AD0EE007A04
:1004800020EE017AA1EE416A20EE200AE1EE017A27
:10049000F0EE664AB0EE475AF0EE405AD0EE814A8E
:1004A000E0EE816AA0EEA15A90EEA17AD1EE215A37
:1004B000A1EE210AB1EE614AF0EE463AE4EE217A6D
:1004C000E4EE213AA1EEA16A74EEA44A76EEA66AA1
:1004D00035EE055A37EE077A75EEA55A30EE000A6A
:1004E000C0ED003AC0ED047A80ED086AC0ED014A23
:1004F000C0ED036A80ED025A80ED067AC0ED055A20
:1005000080ED070A704700BF30B484B00024DFEDEF
:10051000155A02940194039403F1240501ACD3ED20
:10052000017AD3ED006A93ED027A9FED0E6A60EED8
:10053000A77A0C33E6EE807A9D42E7EE017A67EE09
:10054000A57AE4EC017AEAD1DDED037A019C029B05
:10055000046077EEC67A0B60C2ED007A04B030BC5E
:10056000704700BFC3F51C4108B52522242110485F
:1005700001F0CCF938B934210E4802F0FFFE0E48E4
:1005800001F07AFBFEE71021094801F035F9192145
:10059000074801F073F91921054801F085F919217F
:1005A000034801F03FFA054B054A5A6108BD00BFF8
:1005B000D811FF1F985B00003407FF1F7812FF1F40
:1005C0000AD7233DF0B52DED0A8BDC4EDC4F8DB004
:1005D00001F040FE33683A68C01A904203D20DB071
:1005E000BDEC0A8BF0BDD74CD74D204601F098FAF0
:1005F000204601F0CBFA204601F01AFBB4F9321084
:10060000204600F0ADFEB4F934102046F0EE408AEA
:1006100000F0A6FEB4F936102046B0EE409A00F085
:100620009FFEB4F92C102046F0EE409A00F08EFEAA
:10063000B4F92E102046B0EE408A00F087FEB4F9DF
:1006400030102046B0EE40AA00F080FEB4F9381019
:100650002046F0EE40AA00F08DFEB4F93A10204694
:10066000B0EE40BA00F086FEB4F93C102046F0EE41
:1006700040BA00F07FFEF0EE6B3AB0EE404AB0EECA
:100680004B3AB0EE6A1AF0EE4A0AB0EE480AF0EEC3
:10069000692AB0EE492AF0EE681A284600F0EAFA14
:1006A00095F82430002B00F028819FEDA88A95ED65
:1006B00006AAD5ED077A2AEE08AA27EE888AD5ED94
:1006C000086A9FEDA27ADFEDA27AD5ED01AA95ED39
:1006D00002BAD5ED03BA95ED04CA9E4C9E4DE6EEE6
:1006E000877A17EE900A04F033FA41EC100B0221DE
:1006F0009A4801F011FB0121994802F03FFE18EEE3
:10070000100A04F025FA41EC100B0221934801F085
:1007100003FB0121924802F031FE1AEE100A04F0A8
:1007200017FA41EC100B02218C4801F0F5FA012177
:100730008B4802F023FE18EE900A04F009FA41EC0F
:10074000100B0221854801F0E7FA0121844802F0EC
:1007500015FE19EE100A04F0FBF941EC100B022112
:100760007E4801F0D9FA01217D4802F007FE19EE1A
:10077000900A04F0EDF941EC100B0221774801F0EA
:10078000CBFA0121764802F0F9FDF0EE4C1AB0EEFA
:100790006B1AF0EE4B0AB0EE6A0A03A8FFF766FE8A
:1007A000B0EE691A03AB02AAF0EE490AB0EE680A8D
:1007B00001A96846FFF7A8FE009804F0C9F941ECCA
:1007C000100B0221654801F0A7FA0121644802F0EC
:1007D000D5FD019804F0BCF941EC100B02215F48F3
:1007E00001F09AFA01215E4802F0C8FD029804F077
:1007F000AFF941EC100B0221584801F08DFA0121AC
:10080000574802F0BBFD9FED577ADDED006A9DED84
:10081000015A9DED026A544895ED002AD0ED001A68
:1008200094ED004A514A524B5249D2ED003A91EDB3
:10083000003A66EE876A25EE075A26EE076A66EEEC
:10084000874A66EE072A65EE075AF6EE007A76EEDC
:10085000A16A36EE046A35EE025A67EEE44A67EEA4
:10086000E55A67EEE27AE6EE874AE6EE077AE5EECB
:10087000075A93ED004AC0ED006A74EE834A35EEE4
:10088000A37A77EE847A82ED007AC3ED007A16EED1
:10089000900AC1ED004A85ED005A84ED006A04F02B
:1008A00057F941EC100B02212C4801F035FA0121D7
:1008B0002B4802F063FD286804F04AF941EC100B64
:1008C0000221264801F028FA0121254802F056FDB0
:1008D000206804F03DF941EC100B02211F4801F0A3
:1008E0001BFA0221244802F049FD32683B68134498
:1008F00033600DB0BDEC0A8BF0BD284600F072FCF1
:100900009FED128A95ED06AA95F824302AEE08AAE2
:100910007BB9284600F066FCD5ED077A95F82430BF
:1009200027EE888A002B7FF4CAAE284600F05AFCD6
:10093000C5E6D5ED077A27EE888AC0E66812FF1F64
:10094000D411FF1FD811FF1F7812FF1FE12E65423F
:10095000000034437412FF1F7012FF1F3407FF1F83
:10096000D05B00000AD7233D6C12FF1F6412FF1FEB
:10097000D011FF1F6012FF1FD45B000008B50448B0
:1009800000F00AF80348BDE8084000F087BC00BF4B
:100990007812FF1FD811FF1F30B4084901600022F0
:1009A0004FF06C544FF07E5500214560446180F853
:1009B00024108260C260026130BC7047CDCCCC3D57
:1009C000DFEDAB7A90ED027A90ED034A90ED016A8B
:1009D000D0ED046A21EE275A60EEA75A20EE270ACE
:1009E00027EE453A24EE651A65EE040A65EE873A6D
:1009F000A5EE863AA7EE401AE0EE060AE5EE063AC4
:100A0000A0EE263AA5EE661AE5EEE60AE0EE443AD6
:100A1000F5EE401AF6EE007AF1EE10FA2DED0A8BA3
:100A200023EE273A21EE271A60EEA70A63EEA73AD3
:100A300005D1B5EE402AF1EE10FA00F0128162EE17
:100A4000027AB6EE000AE1EEA17AF7EE085AE2EE7B
:100A5000A27AF0EE65AA17EE903A5B10C3F1BE439E
:100A600003F55D1303F5CE531F3367EE807A05EE71
:100A7000103A04EE903A27EE855A76EEA69AE4EE06
:100A8000C5AAB1EE008A2AEEA45AF0EE65AA67EE76
:100A9000857A67EE088AE5EE67AA26EEA69A6AEEE0
:100AA00085AA26EE06BA61EEAA1A2BEE08BA69EEFE
:100AB000E17A36EE06AAE8EE897A2AEEC22AE7EE55
:100AC0000B7A61EE8A4AE2EE0A7AE4EE0B4AB0EE65
:100AD000495A24EE089AF2EE00BA67EE2BCAE9EE04
:100AE000054A77EEE87A27EE075A24EE04BAECEED0
:100AF000857A34EE04AAECEE8B7AE2EE294A26EEF1
:100B000008CA62EEAA2A61EE8A9AE2EEA87AECEEB0
:100B10000B9A64EE2BBA74EEC94AF0EE678AEBEEDC
:100B2000854A77EE077AECEE059A67EEE11A25EE34
:100B3000085AEBEE8B4AE2EE279AE6EE851A2BEE88
:100B4000088A28EEA85AF0EE647AE2EE897AA9EED5
:100B5000A95AE6EE881AA7EEA75AE2EE0A1AB0EEF4
:100B6000652AA1EEA15AD0ED002A15EE103A5B10CD
:100B7000C3F1BE4303F55D1303F5CE531F3325EEDA
:100B8000005A04EE903A00EE103A65EE244AA0EEC8
:100B9000642AF0EE424A64EE804A25EE245AE4EEDE
:100BA000C55A65EEA45A65EEE99A65EEE88A65EEE7
:100BB000E77A65EEE11AA9EEA21AE8EEA20AA7EE1C
:100BC000A23AE1EEA23A002380F8243090ED055AD3
:100BD000A0EE857ABDEC0A8BA1EE056A67EE075A96
:100BE000F0EE447AE3EE057AE6EE065AE3EE856A25
:100BF000E7EEA75AF6EE004AE6EEA65AB7EE085A16
:100C000015EE903A5B10C3F1BE4303F55D1303F597
:100C1000CE531F3365EEA45A04EE903A03EE903A99
:100C200065EEA44AB0EE454AA3EEE44AF0EE444A2B
:100C300064EEA34A65EEA45AA4EEE55A65EE245A82
:100C400026EE256A27EE257A67EEA57A66EEA56A76
:100C500080ED016A80ED027AC0ED037AC0ED046A8E
:100C60007047F5EE402AF1EE10FA7FF4E8AEAAE7FD
:100C700039FA8E3C10B52DED108BB5EE403AF1EE01
:100C800010FA8CB00346F0EE407AB0EE607AF0EEE7
:100C9000416AB0EE616AF0EE425AB0EE625A05D196
:100CA000F5EE403AF1EE10FA00F05D82F0EE452AE2
:100CB0008DED015A9FED805AF0EE470A60EE850AED
:100CC000F0EE461A93ED026A93ED037A26EE851A4A
:100CD000B0EE652A60EE866AD3ED015AB0EE670A7F
:100CE00020EE050A67EE60AA21EE07BA26EE41AAB9
:100CF000E1EE256A1C46B1EE465AE5EE00AAA0EEEA
:100D000025BAA0EEA5AAD3ED047AE0EE476AE1EE9B
:100D100067AAA0EEE7BAA0EE27AAF6EE004A66EEB2
:100D2000A46AF5EE401AF1EE10FA6AEEA4AA2BEED0
:100D300024BA2AEE24AACDED006AF0EE47EAB0EE1E
:100D400067FAB0EE65EA05D1B5EE402AF1EE10FA89
:100D500000F0038263EEA36AF6EE002AE3EE036A74
:100D6000B7EE081AE4EE046AF0EE410A16EE903A85
:100D70005B10C3F1BE4303F55D1303F5CE531F3380
:100D800066EEA26A04EE903A00EE103A66EEA44ACD
:100D900075EEA5CAE0EE640A65EEA5FAF0EE604ACB
:100DA00064EE804AF0EE410A66EEA46A36EE06DA98
:100DB000E4EEE60A66EE068A60EEA46A27EE07CA4B
:100DC00063EEA63A23EE263A23EEAC8A24EE264AB8
:100DD00063EE2C4A23EEAF0A68EE676AA7EEA40A18
:100DE000E3EE2F6A64EE2C0AF1EE639AA5EE200A78
:100DF000E7EE206A23EE0D5AE3EE286AA7EE050A15
:100E000063EE8D0AA9EEA80AE7EE206A64EE0D0AE9
:100E100037EE079AE7EEA06AA3EE8C0A64EE09BAF1
:100E2000F1EE430AA7EEAB0AE0EE8C6A62EE02BA7C
:100E300067EEA7DAE1EEA1BAE0EEAD6ADDED010AF8
:100E4000A9EEAD0AE0EEA0BA20EE000A1BEE903A41
:100E5000A6EEA60A5B10C3F1BE4303F55D1303F5CE
:100E6000CE536BEEA2BA1F33F1EEC02A06EE903AD3
:100E700077EEA70A6BEEA66A09EE903ACDED020A6C
:100E8000F0EE410AE9EEE60A06EE903A60EEA60AB6
:100E9000F4EE622A6BEEA0BAF1EE10FAA0EEEB1AB5
:100EA00066EE259A66EE076A66EE27BA21EE201AEC
:100EB00040F0668102E000BF39FA8E3C28EE068AD7
:100EC000EFEE4E6AA4EEC78ACDED036AF0EE486AF3
:100ED000E4EE2F6AF1EE444AE5EE276A23EE890A32
:100EE000E4EEA86A79EEA90AE7EE806AEFEE090A55
:100EF000B0EE000AB7EE005AE2EE410AE4EE8C6A68
:100F0000A8EEC05AF1EE6E4AB0EE6B2AA4EE8E2A1D
:100F10003BEEAB8AACEE405AB6EE000AA4EEAC8AC9
:100F2000F0EE424A30EE4C2AE4EE2D6A72EE6DDAB3
:100F30009DED012ADDED03FAA2EE415AA1EEC18A30
:100F4000EEEE8F9AB0EE451A24EEA6FA9DED025A07
:100F50006CEEA04AF0EE481AE5EE084AA2EEADFAB1
:100F6000B1EE008A69EEA69A28EE462A70EE688AEB
:100F7000E2EEAF9AE2EE014A25EE205A2DEE202A4B
:100F800072EEA2DA3FEE433AEEEE8EBA38EECCCAFB
:100F900022EE87FA27EEA6EAACEEE15AA9EE612A24
:100FA000F1EE6DDA79EEE33A2CEE26CA66EE26FA19
:100FB000F0EE4F8A67EE2D9AE3EE0E4A76EEA6CA61
:100FC00067EE26EAE6EEA58A27EE088AA2EEABCA0D
:100FD000E6EEE59AF1EE62BAF0EE6F6AAEEEC32A83
:100FE000A1EE485AE7EEAB6A2CEEC61AE3EEA84A29
:100FF000A2EEA71A29EE209A3CEE44CAA6EEA32A36
:1010000022EE864AA3EE295AADEE219AE7EEADFA1A
:10101000ECEE014A3EEE04EA6CEEC7CAAFEE0C2AD3
:10102000A3EE2F9AA3EE8E5AE2EEA5CAEBEEA5EA46
:1010300064EEA46AA3EEAE9AACEE2C5AE2EE026A1B
:10104000ACEE049AE5EE056AB7EE084AE9EE096AE5
:10105000F0EE443A16EE903A5B10C3F1BE4303F54E
:101060005D1303F5CE531F3326EE800A06EE903A49
:1010700003EE103A60EE266AE3EE663AF0EE636A3B
:1010800066EE836A20EE260AA6EEC04A64EE266A61
:1010900094ED004A26EEC55A26EEC22A66EEE44AD0
:1010A000A5EE04AA66EEC96A9DED005AA6EE845A22
:1010B000E2EE04AAA4EE84BA8DED005A94ED055A2E
:1010C000DDED004AABEE056A002384F82430EAEE39
:1010D000855A66EE066AAAEE057AE5EEA56AE4EEA2
:1010E000857AE7EE076AF6EE004AE7EEA76AB7EE02
:1010F000085A16EE903A5B10C3F1BE4303F55D1338
:1011000003F5CE531F3366EEA46A04EE903A03EE65
:10111000903A66EEA44AB0EE454AA3EEE44AF0EEF9
:10112000444A64EEA34A66EEA46AA4EEE65A65EE6B
:10113000246A65EEA65A26EE266A27EE267A67EE20
:10114000A67AC4ED015A84ED026A84ED037AC4EDF7
:10115000047A0CB0BDEC108B10BDF5EE402AF1EE18
:1011600010FAABD0F6E5B5EE404AF1EE10FA7FF496
:101170009DAD0CB0BDEC108BBDE81040FFF720BC5E
:101180008DED0B2ACDED0A1A8DED091ACDED086A09
:101190008DED075ACDED064A8DED054ACDED043AA9
:1011A0008DED033A03F028F894ED026A94ED037A8A
:1011B000D4ED047AD4ED015A9DED0B2ADDED0A1A27
:1011C0009DED091ADDED086A9DED075ADDED064A31
:1011D0009DED054ADDED043A9DED033AF0EE402A1F
:1011E0006CE600BF10B5D0ED027A90ED037A90ED79
:1011F000040AD0ED016A2DED028BB6EE008AF0EE06
:10120000480AE7EEE70A044627EE000AE7EE470A37
:10121000A6EEA70A02F0EEFF94ED016AD4ED037A80
:10122000D4ED026A94ED047A84ED060A67EEC67A7C
:10123000B8EE000AE6EE877A27EE800A02F07AFF1F
:1012400094ED037AD4ED046AD4ED017A94ED026A48
:1012500084ED070AF0EE480AE7EE470A26EEA70AF1
:10126000E6EEE60AA6EE070A02F0C4FF012384F8C0
:101270002430BDEC028B84ED080A10BD90F83830A4
:1012800090F839209A4205D95A1C034480F8382036
:10129000187E70474FF0FF30704700BF704700BFA7
:1012A000F52100230122F0B54181062502240427FF
:1012B000072603214FF0FF0EC47680F8247080F8D3
:1012C0002560027242758275C27502768276427717
:1012D0008277C27780F823200573057780F820E0B5
:1012E00043738373C373037443748374C374037548
:1012F00080F8213080F8223080F8263080F82930BC
:1013000080F82A3080F82710002480F8281000F197
:10131000400780F82B2000F14C0600F158050246EA
:10132000013947F8044B4FF0000E46F8044B02F128
:10133000020245F8044BA2F86230A2F86830A2F825
:101340006E30EDD180F884E0F0BD00BF07EE901A5A
:10135000B8EEE70AD0ED1E7A20EE270A704700BFEC
:1013600007EE901AB8EEE70AD0ED1F7A20EE270AB2
:10137000704700BF07EE901AB8EEE70AD0ED207A6A
:1013800020EE270A704700BF4389F52B07D0B3F53D
:10139000FA7F04D0B3F5FA6F1CBFF5234381C27EF8
:1013A000102A0ED90223C37690F82420102A03D9DC
:1013B000042380F824307047044BD340DB07F7D573
:1013C0007047034BD340DA07EED4EBE7101101006E
:1013D0001401010038B50546012190F87700114C41
:1013E00000F032FF95F87700012100F027FF95F813
:1013F0007600012100F028FF95F87600012100F029
:101400001DFF204602F0FEFD2046074902F066FE61
:101410002046012102F034FE20460021BDE838407C
:1014200002F056BE3409FF1F000002B870B508462E
:101430000D46002114461E4600F000FF0C4B1968B3
:1014400004F03F044FF00043CB624C63CA6A002AA9
:10145000FCDA4FF000438A6BCB624E63CB6A002B01
:10146000FCDA8B6B28460121BDE8704000F0E6BE37
:101470003409FF1FF8B590F876009DF8185002F077
:101480003F0288420E4642F080071C4628D00021C9
:10149000304600F0D3FEDFF854E0DEF800104FF0E5
:1014A0000043CB624F63CB6A002BFCDA8B6B8DB1B0
:1014B0002346671900204FF00044CC624863CA6A93
:1014C000002AFCDA8A6B03F8012BBB4202D0DEF85B
:1014D0000010F2E73046012100F0B0FE2846F8BDCA
:1014E000012D88BF47F04007D1E700BF3409FF1F37
:1014F00070B5044640680125490080F83B1080F82B
:101500005E5080F85D5060680668114632681E467D
:1015100090476068026831461368984729466068BA
:10152000BDE8704002F026BB30B40478012C09D02D
:101530000CB130BC7047134630BC0A4690F87710A7
:10154000FFF774BF134630BC0A4690F87710FFF7D8
:10155000CFBF00BF10B5037A044613B1037B5B0114
:10156000DBB26289B2F5FA7F4DD0B2F5FA6F47D09F
:10157000627B02F003021A4310212046FFF7D4FFDA
:10158000002211212046FFF7CFFFA27BE37B002A38
:1015900014BF802200222BB1237C03F00F0343F001
:1015A00040031A4312212046FFF7BEFFE27DA37DD0
:1015B000002A0CBF0022202213B142F01002D2B246
:1015C000637D0BB142F00802237E0BB142F00202B0
:1015D0001E212046FFF7A8FF627CA37C002A0CBFD7
:1015E0000022202213B142F01002D2B2E37C0BB1F0
:1015F00042F0080220461321BDE81040FFF794BFD7
:1016000043F01803B4E743F00803B1E710B5C27F15
:10161000837F002A04460CBF0022202213B142F02F
:101620001002D2B2637F0BB142F008021F212046A4
:10163000FFF77AFFA27E12B1227F5201D2B2E37E7F
:10164000082B26D0102B21D0042B1CD094F920304D
:10165000002B04DB03F003031A4342F004022021B1
:101660002046FFF761FF94F8212032B194F8222040
:10167000520102F0600242F0800220462121BDE8C2
:101680001040FFF751BF42F01002DFE742F00802BE
:10169000DCE742F01802D9E730B40478012C09D015
:1016A0000CB130BC7047134630BC0A4690F8761037
:1016B000FFF7BCBE134630BC0A4690F87610FFF721
:1016C00017BF00BF38B590F8272090F8253090F864
:1016D000265052019B0003F01C03002D02F0600213
:1016E00042EA030214BF6FF07F03002304461A434B
:1016F00002F0FC022021FFF7CFFF94F82430083BD2
:10170000DBB2082B96BF134A0022D25C204621216F
:10171000FFF7C2FF94F8292094F82A30002A03F03A
:10172000030314BF202200221A4320462221FFF780
:10173000B3FF94F828209200204602F00C022321E7
:10174000FFF7AAFF204600222421BDE83840FFF71A
:10175000A3BF00BFD85B0000436870B501250E46EB
:10176000490083F83B1083F85E5083F85D500446CF
:101770004068036811461B6898470021606802F0C2
:10178000F9F92B462A463146606802F07DFA606816
:101790000A4A03685B6993420BD190F8383090F89D
:1017A00039209A4208D95A19034480F83820187E03
:1017B00070BD9847C0B270BDFF2070BD7D120000A3
:1017C00010B50378012B84B00A460FD013B1FF2067
:1017D00004B010BD012390F8771000930DF10F03B2
:1017E000FFF748FE9DF80F0004B010BD90F8771089
:1017F000FFF7B2FFECE700BF38B50D4620210446E5
:10180000FFF7DEFF082D00F0E7022BD0102D25D0CA
:10181000042D1FD00223E37620212046FFF784FE0B
:10182000E37E023B0E2B0BD8DFE803F0110A0E0A11
:101830000A0A0B0A0A0A0A0A0A0A08000B4BE3679B
:1018400038BD0B4BE36738BD0A4BE36738BD0A4B25
:10185000E36738BD42F01002E576DDE742F00802AA
:10186000E576D9E742F01802E576D5E7B0E33F3AEE
:1018700040DA7F3940DAFF3840DA7F3870B511F04E
:10188000070600D170BD0C4610210546FFF798FFF2
:1018900000F01F0040EA44122E732846D2B21021F5
:1018A000BDE87040FFF740BE70B511F0070600D1EB
:1018B00070BD0C4620210546FFF782FF00F01F0097
:1018C00040EA44122E772846D2B22021BDE870406B
:1018D000FFF72ABE10B50378012B84B00A460FD05B
:1018E00013B1FF2004B010BD012390F876100093CF
:1018F0000DF10F03FFF7BEFD9DF80F0004B010BD02
:1019000090F87610FFF728FFECE700BF38B500230A
:1019100003704170827080F8771080F8762004465A
:10192000FFF7BEFCFFF730FD4389B3F5FA7F55D0D2
:10193000B3F5FA6F4FD0F52B4AD094F82430043B1E
:101940000C2B0BD8DFE803F0400A0A0A070A0A0A40
:101950003C0A0A0A3800284BC4F88030E37E023B78
:101960000E2B0BD8DFE803F0250A080A0A0A220A20
:101970000A0A0A0A0A0A1F00204BE3672046FFF7FB
:1019800029FD0F212046FFF7A5FF0F210546204620
:10199000FFF716FF45EA002005B246F63D039D42DB
:1019A0001FD0002038BD164BE367E7E7154BE36710
:1019B000E4E7154BE367E1E7144BC4F88030CDE76B
:1019C000134BC4F88030C9E7124BC4F88030C5E728
:1019D000114B8367B1E7114B8367AEE7104B836709
:1019E000ABE72046FFF7B6FD2046FFF70FFE204687
:1019F000FFF768FE284638BD240B983940DAFF38D7
:101A0000B0E33F3A40DA7F3940DA7F38240B183AA6
:101A10009F71E139F7CC1239295C0F3C295C8F3D6D
:101A2000295C8F3C38B50C4620210546FFF752FF54
:101A3000A30004F0070400F0E30203F01C0385F8A0
:101A400025401A4328462021BDE83840FFF724BE30
:101A50002DE9F0410F4641689DF8188004460126A3
:101A6000780081F83B0081F85E6081F85D60606815
:101A7000056842F080012A681D4690476068002191
:101A800002F078F818B100263046BDE8F081334600
:101A900039464246606802F0F7F840450646F2D102
:101AA0000028F1D0DFF83C802F1810E090F8383093
:101AB00090F839209A4203F1010E00EB03010ED990
:101AC00080F838E0087E05F8010BAF42DCD0606892
:101AD00003685B694345E9D09847C0B2F3E7FF204C
:101AE000F1E700BF7D12000030B50D4601780129F5
:101AF00083B00CD011B1FF2003B030BD90F8771047
:101B0000009313462A46FFF7B5FC03B030BD90F8AA
:101B10007710009313462A46FFF79AFFECE700BFC1
:101B2000F0B583B006236A4628210446FFF7DCFFA0
:101B3000062801D003B0F0BD9DF801709DF800109B
:101B40009DF803609DF802209DF805509DF8043033
:101B500094F8840041EA072142EA062243EA052379
:101B600009B212B21BB26186A286E3860028E1D0D8
:101B7000B4F86A60B4F86C50B4F86E00891B521B5C
:101B80001B1A6186A286E38603B0F0BDF0B583B070
:101B900006236A4618210446FFF7A6FF062801D04F
:101BA00003B0F0BD9DF801709DF800109DF8036032
:101BB0009DF802209DF805509DF8043094F88400AB
:101BC00041EA072142EA062243EA052309B212B29A
:101BD0001BB2A185E28523860028E1D0B4F86460B9
:101BE000B4F86650B4F86800891B521B1B1AA18513
:101BF000E285238603B0F0BD30B50D46017801299A
:101C000083B00CD011B1FF2003B030BD90F8761036
:101C1000009313462A46FFF72DFC03B030BD90F821
:101C20007610009313462A46FFF712FFECE700BF39
:101C300070B582B006236A4628210446FFF7DCFF10
:101C4000062814D19DF801609DF800109DF80350FE
:101C50009DF802209DF805009DF8043041EA062118
:101C600042EA052243EA002321876287A38702B064
:101C700070BD00BF0020704700B5064A0368128897
:101C80005B6883B001A9ADF804200222984703B035
:101C90005DF804FBE45B0000F0B507468BB0002A5A
:101CA00033D0012A08BF0A2251B3212400E0F4B244
:101CB000B1FBF2F502FB1511C8B2092900F13001A0
:101CC00098BFC8B20AA988BF3730214488BFC0B2C4
:101CD00001F8240C661E2946002DE8D133B1013CE1
:101CE000E4B20AAB23442D2203F8242C3B6801AA5A
:101CF00011195B683846C4F1220298470BB0F0BD59
:101D000030228DF825202124E8E70368C9B21B683A
:101D100098470BB0F0BD00BF2DE9F04357EC106BB6
:101D200085B005460C4610EE102A3B4610EE100A10
:101D3000394603F0FBF9002840F0B28027F0004953
:101D4000304649464FF0FF32594B03F0EFF990B956
:101D5000304649464FF0FF32554B03F0C9F950B9B0
:101D60002B6854495B6828460322984780464046C2
:101D700005B0BDE8F0834FF060424F4B3046394626
:101D800003F0CAF9002872D14FF060424B4B304645
:101D9000394603F0A3F9002869D100220023304618
:101DA000394603F09BF9002864D18146002C67D0A6
:101DB000434900204FF000083BA3D3E9002308F17A
:101DC000010802F019FF5FFA88F39C42F4D802463A
:101DD0000B463046394602F05DFD0F46064603F0DD
:101DE000BBF9804602F092FE02460B463046394669
:101DF00002F04EFD4B4606460F460A224146284653
:101E0000FFF74AFF0F2C28BF0F2404F101092E23EE
:101E100080465FFA89F98DF8003001240022294BB1
:101E20003046394602F0E8FE0F46064603F094F9C4
:101E300004AB2344C0B200F1300203F8102C02F0CE
:101E400075FE02460B463046394602F021FD01344C
:101E5000E4B24C4506460F46E0D12B6822465B684B
:101E6000284669469847404605B0BDE8F0832B6890
:101E7000154977E707F100431F464FF0010995E741
:101E800000220F4B3046394602F004FD03F064F99E
:101E90004B4601460A222846FFF7FEFE804666E7CB
:101EA0002B680A495EE700BF000000A09999B93F7E
:101EB000FFFFEF7FF05B0000FFFFEF41FFFFEFC18F
:101EC0000000E03F00002440EC5B0000E85B000005
:101ED00008B5FEF749FBFEF775FB01F053FBFAE787
:101EE000844641EA000313F003036DD1403A41D325
:101EF00051F8043B40F8043B51F8043B40F8043BE4
:101F000051F8043B40F8043B51F8043B40F8043BD3
:101F100051F8043B40F8043B51F8043B40F8043BC3
:101F200051F8043B40F8043B51F8043B40F8043BB3
:101F300051F8043B40F8043B51F8043B40F8043BA3
:101F400051F8043B40F8043B51F8043B40F8043B93
:101F500051F8043B40F8043B51F8043B40F8043B83
:101F600051F8043B40F8043B51F8043B40F8043B73
:101F7000403ABDD2303211D351F8043B40F8043B13
:101F800051F8043B40F8043B51F8043B40F8043B53
:101F900051F8043B40F8043B103AEDD20C3205D323
:101FA00051F8043B40F8043B043AF9D2043208D01B
:101FB000D2071CBF11F8013B00F8013B01D30B888D
:101FC00003806046704700BF082A13D38B078DD06B
:101FD00010F003038AD0C3F10403D21ADB071CBF3D
:101FE00011F8013B00F8013B80D331F8023B20F8A7
:101FF000023B7BE7043AD9D3013A11F8013B00F8E0
:10200000013BF9D20B7803704B7843708B78837067
:102010006046704708B5104C08E0236859050DD498
:1020200023681A050FD42368DB0411D423685803EE
:10203000F3D500F015FB23685905F1D500F00EF833
:1020400023681A05EFD500F009F82368DB04EDD505
:1020500000F004F8EAE700BF3480044008B5FFF759
:10206000D9FF00BF014B10221A80704700200540A5
:10207000704700BF094908B50B6830B16A4618447B
:10208000A2F50052904202D20860184608BD03F043
:10209000D3F80C2303604FF0FF3008BD3007FF1F5B
:1020A000084A1378802B01D0002070470649074B5F
:1020B00007480860002119701378802BFCD001209C
:1020C000704700BF03E007404480044001E0074040
:1020D00000002822094A1378012B01D00020704704
:1020E00003F1804303F5FC23602119701378802BE2
:1020F000FCD1034B034A1A600120704703E00740FC
:102100004480044000000602F0B44D1E2E46002418
:1021100000E00134B0FBF2F302FB1300092800F1E8
:1021200030078ABF3730F8B2C0B206F8010F184640
:10213000002BEED10A1953704CB1107815F8016FCD
:1021400028700133E01A834202F80169F5DB084682
:10215000F0BC704710B4114B53F8302092F8804215
:1021600034B1012379B182F880305DF8044B7047B7
:1021700003EBC0035B681A6851B922F002021A60CF
:102180005DF8044B704782F800315DF8044B7047EE
:1021900042F003021A605DF8044B7047F45B0000E4
:1021A0001C4A02EBC00301295B6811D004291BD033
:1021B00052F83000002280F8802229B1022920D074
:1021C000032922D01A6070474FF480721A6070475A
:1021D00052F830004FF4A27280F880121A601A6828
:1021E00022F020021A60704752F830104FF4A272A9
:1021F000012081F880021A601A6842F020021A60F9
:10220000704740F203121A6070474FF481721A60EF
:10221000704700BFF45B000030B4054B054D064C21
:10222000002210211A602A602060196030BC7047BB
:1022300014D0034004D0034000D003403F2801D80D
:10224000FFF788BF704700BF3F2801D8FFF7A8BF3E
:10225000704700BF72B60D490D4B0E4A1B680868E7
:10226000126862B6520102D5322B88BF0130C3F525
:102270002F33094903F21F334FF47A729B08A1FBF5
:10228000031302FB00F000EB93007047A012FF1F46
:1022900018E000E004ED00E0176CC1162DE9F843EA
:1022A000054672B6224F234B234A1B683C681268CE
:1022B00062B6520102D5322B88BF0134B5B3C3F5E3
:1022C0002F3303F21F331D4EDFF86890DFF868806C
:1022D0009B084FF47A72A6FB031302FB04F404EB91
:1022E000930472B6D9F800103A68D8F800E062B6E4
:1022F000C1F52F3303F21F339B08A6FB03031EF027
:10230000806FC4EB93034FF47A7002D0322988BFF8
:10231000013200FB0233B3F57A7F04D3013D05D0CF
:1023200004F57A74DDE701F02DF9DAE7BDE8F8830A
:10233000A012FF1F18E000E004ED00E0176CC116CA
:10234000F8B54E4B4E48DFF85CC14E4C4E49DFF8B5
:1023500058E14E4E4E4D4F4F4FF000621A604FF015
:1023600080521A604FF000521A604FF080421A609B
:102370004FF000421A600022026028234EF6FF70E0
:10238000CCF80000CEF8003023600EF5012E0B6073
:1023900033602B6006F500263B6005F50025A3623F
:1023A00007F500278B6204F5012401F5012106F6EB
:1023B000E87605F6E87507F57F6710310EF1100E27
:1023C000203433602B60CEF800303B600B6023601C
:1023D000314CBB618B6109212160A7F5002704F511
:1023E0008054203F08343A602060BB60E36047F8C7
:1023F000041C04F5FD2407F5FE27043704F2FC74E1
:1024000022603860A360FB6044F8041C083404F6C2
:10241000FC74C7F8FC2F2060A4F5E124A4F2DC745E
:1024200033602B60C7F8F81F21681C4841F4007125
:10243000216001681A4C0EF57F4E0EF1E80E07F58B
:10244000883706F5803605F5803541F0007101606A
:10245000CEF8002047F6FF710822396033602B6008
:10246000226001F07FF91920FFF718FF00F05EFEEF
:1024700040F21310BDE8F840FFF710BF04E100E0A0
:1024800004800340148003401C80034024800340E8
:102490002C800340348003400080034004800440CB
:1024A00000900C40088003400C800340431E032B27
:1024B00014D872B60A4951F8230068B170B4094CB7
:1024C000058834F81320466841F82360521B24F82D
:1024D000132062B670BC704762B670470020704728
:1024E000FC12FF1F0414FF1F013803280BD872B61B
:1024F000074B53F8203043B100205B680130002BBC
:10250000FBD162B67047002070471846F9E700BF5C
:102510005013FF1F30B472B62B4A13781D0706D52F
:102520002A4B196A002936D0996A002941D053787C
:102530001C0706D5254B196C00293ED0996C002943
:1025400039D09378190705D5204B196E002936D05C
:10255000996E89B1D3781B0707D51C4BD3F880201F
:102560007AB3D3F8882011213AB162B6184B002211
:102570001A7030BC00F076BE0D21154C154D227836
:1025800043F8315003EBC1030830013A5860227020
:1025900062B630BC704704220D4C0F4D217843F8D1
:1025A000325003EBC20308304A1E5860227062B6F4
:1025B000EFE70521E1E70921DFE70822ECE70C223C
:1025C000EAE71022E8E700BF1C5E00000000FF1FE2
:1025D0007913FF1FC800400088004000431E032BF2
:1025E0001DD81B4A400140F0100030B4104472B6B0
:1025F000184CE25C032A1BD8DFE802F00212151720
:1026000003220D88E25410F0080F14BFC82388235A
:1026100043EA054308310360416062B630BC70474D
:1026200008300222EDE70522EBE708300422E8E754
:10263000094A52F8230038B1084A52F82300416091
:1026400042F8231062B6E9E742F82310034AF7E79D
:102650000000FF1F8813FF1F5013FF1F6013FF1F91
:102660002DE9F04FDFF818B3DFF818A387B044E086
:10267000AE4F4FEA930807EBC809013ED9F8042092
:1026800003F00803F6B2A2F1080003F0FF04002BE8
:1026900040F0048157F838301B0C99B222F8081C1E
:1026A000002B00F0F280A24B22F8064C42F8044CBA
:1026B00053F82620002A00F06E819E4D55F82630F2
:1026C00058609D4C45F8260034F81630194424F81B
:1026D000161000F0A7FD002800F05681974A984B8D
:1026E00019F0080F00F1080018BF1346C9F80400DC
:1026F00047F8383008238BF800309BF80040E4B2EC
:1027000061071BD58F4B1B78ABB18F490A7802F05C
:10271000FF032AB1013BDBB20B70002B00F0EF840A
:102720008A490A7802F0FF032AB1013BDBB20B7041
:10273000002B00F0F78004238BF8003004F008032E
:1027400003F0FF02002B00F0D6809AF80030DBB2D5
:102750001E098DD19C08DFF8D49159F8342009EB7B
:10276000C401C2F38302013A49680C2A7ED8DFE82B
:1027700002F081817D7D7D7D7D7D477D7D7D0700B2
:102780000868734D4A68734F734E286081B240F2F7
:1027900081606A4B6A604FF0010E0022814249F865
:1027A00034303A60C9F81020C9F8182086F800E0E3
:1027B0005E4C00F2F480B1F5D06F80F07883B1F513
:1027C000817F00F0628300F28782802900F0EC8232
:1027D000822940F01E83A98801F07F01042900F2BC
:1027E00018835E485E4C890008442270627002784B
:1027F000930740F1798384F800E04FF0020ED8E2AD
:10280000544F3A6842B3574B534E5749188834785F
:102810000D784028864645F0020828BF4FF0400E4C
:10282000002C84F001043470CEEB00000CBF88242F
:10283000C82409EBC80680B285F0010544EA0E44BD
:102840007260188049F8384072440D7018B9BEF1B2
:10285000400F18BF00223A603D4B1A88B2F5A06FB6
:1028600004D100219A785970404B1A70404A0123D4
:1028700013703FE7364A158842F22100854200F086
:10288000FF812E4A49F83420F0E72C4A2C4B19F0EE
:10289000080F18BF134647F838302BE700F0E2FC6A
:1028A000344A354952F82630002B00F0B68158687A
:1028B0008C5D42F8260003F10802C9F80420032CBD
:1028C00005D8DFE804F0120F150204228A551A8891
:1028D00019F0080F0CBF8823C82343EA024347F8C6
:1028E000383007E702228A55F1E703228A55EEE7DE
:1028F00005228A55EBE7E00700F11A82210600F174
:102900004982A20706D51D4A1D4913780220DBB271
:1029100013700870E30602D5194B10221A7007B025
:10292000BDE8F08F00F00AFE05E700BF0000FF1FC2
:10293000FC12FF1FA812FF1F0414FF1FC800400055
:10294000880040008413FF1F0D13FF1F8C13FF1F0F
:102950007013FF1FA412FF1F0C13FF1FC02007409E
:102960007C13FF1FB812FF1F7813FF1F982007402A
:10297000942007405013FF1F8813FF1F8820074033
:102980008020074090200740AB4A47F83800137872
:1029900001331370AEE643F82600A84D91E642F2EB
:1029A0002100814200F0358100F2AF81B1F5086F5E
:1029B00000F01B82B1F5106F40F02B82226AA04913
:1029C000A8780870120600F14583D9F828209D499F
:1029D000130600F13A83D9F830209A49150600F120
:1029E0002F83D9F838209749140600F12483D9F8A9
:1029F00040209449100600F11983D9F848209149E4
:102A0000120600F10E83D9F850208E49130600F10A
:102A10000383D9F858208B49150600F1F882D9F8BC
:102A200060208849140600F12983D9F86820854977
:102A3000100600F11E83D9F870208249120600F1B9
:102A40001383D9F878207F49130600F10883D9F859
:102A500080207C49150600F11C83D9F8882079492B
:102A6000140600F11083D9F890207649100600F181
:102A7000C882D9F898207349120600F1BC827248C6
:102A8000724A7349019073486C4D734C049700234C
:102A900005960295804617460E461D4603943868F3
:102AA00028B1446800F0DEFB2046002CF9D1002359
:102AB0003B60029B30681A46002342F8253028B15B
:102AC000446800F0CFFB2046002CF9D10022326090
:102AD000019A98F800301146002241F8042B039A1D
:102AE0000191023B4FF0000122F81510032B09D889
:102AF000DFE813F04B0104004B0104004FF0010329
:102B000088F800300135042D07F1040706F10406AA
:102B100008F10108C3D1514C514B2278464D049F16
:102B2000059E002129701A70130700F14F82627808
:102B30004C49DFF810810A7010074FF00001C9F806
:102B40003010C9F8381000F12B824749A2780A707A
:102B50000021C9F85010C9F858101107DFF8E480B7
:102B600000F1DC81E2784149364C0A7000211207FD
:102B7000C9F87010C9F8781000F1B9813378019361
:102B8000002183F00102C9F89010C9F898100020C4
:102B9000029080468446044635490D7845F0020E81
:102BA00009EBCE030393019B002B039B5C600CBFDE
:102BB0008824C82444EA080385F0010449F83E301B
:102BC00032700C70DFF87CE02A4BDFF8A48000281C
:102BD00040F02681BCF1400F1BD144F0020C09EB00
:102BE000CC03029CDFF85CE05C60002A40F02E81A0
:102BF000020442F088029DF804304EF83C20044460
:102C000033700D702346402803D100201A4A3B60E0
:102C100010801A4A0123137028E68B5D032B00F203
:102C20002D8101A252F823F0F5260000F5260000C0
:102C30007F2D0000852D00007913FF1FA812FF1FB4
:102C40008413FF1F0000FF1F6013FF1FFC12FF1FF4
:102C50005013FF1F8813FF1F0414FF1F1C5E00008A
:102C6000C4200740C8200740CC200740D0200740A0
:102C70007813FF1F0C13FF1FB812FF1F942007408B
:102C8000928892B9B14A0D784878157050708D7855
:102C9000C8789570D07010680D79157186284D79B7
:102CA00089795571917100F0A580A949A94E0A78DA
:102CB000307882F00105002842F002020D700CBF4E
:102CC0008821C82149F8321009EBC20280F00100C6
:102CD000002130705160D4E540F20232914240F060
:102CE0008D80A98801F07F01042900F292806A8812
:102CF000002A40F08E809848CDF804E0890008440E
:102D0000017841F00201017041E742F22120814245
:102D10007BD1A988002940F0E480904B904A9148EB
:102D2000AC781D681560CDF804E00A4604702EE703
:102D30008D4B8E4886491A614FF0020E80F800E0F4
:102D4000854F0A708A49196099608A4E8A4D8B4C6A
:102D50009A610D213970FF213170DFF840E229704E
:102D60002270874D874A8EF800109F27012406F8AD
:102D7000047C5D600470DA6007B0BDE8F08F00236A
:102D80008B55B7E401238B55B4E44FF0000388F86A
:102D90000030B7E67049784B80220D2008701A7019
:102DA000A2077FF5B7ADAEE5774C4FF0020E22706B
:102DB0006270EA88724580F0A38165490D78402AE7
:102DC000944645F0020E28BF4FF0400C04EB0C0374
:102DD00009EBCE000293012344604FEA0C48CCEB90
:102DE000020001930022C824E4E6684A664C127887
:102DF0002270DEE7664A0F21117056E7B1F5A06F29
:102E000007D1012300220193C1E642F2213291420F
:102E1000F7D0514A0F231370544A0123137025E54C
:102E200040287FF6DAAE44F002040EEBC401029EA5
:102E30004E60BAB19DF80410564A197033464038B6
:102E400088F8005040334EF83420DFE69DF8043017
:102E500033700204029B0D7042F0C80203444EF826
:102E60003C20D0E69DF804101970029B404A88F877
:102E70000050403840334EF83420C7E619F0080FB0
:102E80000CBF022303238B5534E4A98801F07F0192
:102E90000429BED86A88002ABBD12F48CDF804E0A7
:102EA00089000844017821F0020101706FE63A4A76
:102EB0005468002CADD06888B5F804E003E00C320B
:102EC0005468002CA5D013888342F8D153887345E9
:102ED000F5D1000A03280CBF94F800E0B2F808E02E
:102EE00067E7CDF804E052E64FF0020E61E700F02C
:102EF00099F9002800F0F18008301D4AC4F88400D8
:102F0000C4F8802000F08EF9002800F0E08008303E
:102F1000204AC9F88C00C9F888202FE600F082F911
:102F2000002800F0E6800830114AC8F86400C8F8AC
:102F3000602000F077F9002800F0D5800830154AAD
:102F4000C9F86C00C9F868200CE600BF0C14FF1F1C
:102F50007813FF1F0C13FF1FC0200740A012FF1F94
:102F60001414FF1F9C13FF1F0000FF1F9420074035
:102F700088004000882007408020074098200740B4
:102F8000BC12FF1F1013FF1F7C13FF1F8413FF1FB2
:102F90000D13FF1FC8004000205E00008C2007407A
:102FA00000F040F9002800F08C8008305D4AC8F835
:102FB0004400C8F8402000F035F900287BD00830E4
:102FC000594AC9F84C00C9F84820BEE500F02AF972
:102FD00000286AD00830534AC9F82400C9F82020D4
:102FE00000F020F900285AD008304F4AC9F82C00C8
:102FF000C9F828209BE5D1F89C00083800F032F988
:103000003DE5D1F89400083800F02CF931E5C86DA1
:10301000083800F027F902E5486D083800F022F979
:10302000F7E4C86C083800F01DF9ECE4486C083887
:1030300000F018F9E1E4C86B083800F013F9D6E4A1
:10304000486B083800F00EF9CBE4C86A083800F085
:1030500009F9C0E4606A083800F004F9B5E4C86F03
:10306000083800F0FFF8F2E4486F083800F0FAF88A
:10307000E7E4C86E083800F0F5F8DCE4486E08387C
:1030800000F0F0F8D1E4D1F88C00083800F0EAF84C
:10309000E9E4D1F88400083800F0E4F8DDE42A78A7
:1030A000C9F8280001322A7041E52A78C9F82000C1
:1030B00001322A7094E72A78C9F8480001322A7050
:1030C00043E52A78C8F8400001322A7073E72A786D
:1030D000C9F8880001322A7050E52A78C4F88000C7
:1030E00001322A700EE72A78C9F8680001322A7086
:1030F00038E52A78C8F8600001322A7019E700BE66
:10310000BEF1400FF44628BF4FF0400C04EB0C0317
:1031100002930123CCEB0E004FEA0C4800220193EE
:103120003AE500BF88004000C80040002DE9F041AA
:10313000274C00F089FB002204F1A00023461A600E
:103140005A60083383424FF00001F8D12148224AE7
:103150000368DFF89CE0214E214D224FDFF894C038
:10316000DFF8948043F480230360136843F04073D6
:10317000136003238EF80030A023337002F5C922B8
:10318000C4F3072300F528302B708030C4F30743C5
:1031900010323B70240EFF230470134D8CF8003066
:1031A000124888F800301370012306F8AC3C4FF445
:1031B00000140EF8441C7026102107F82C3C2E70C9
:1031C000046082F8F810AEF1440EBDE8F08100BF53
:1031D0000000FF1F3480044000D800404021074019
:1031E0009C200740B020074035E400E004E100E007
:1031F00044210740802007408820074000F0A2B803
:1032000000F07AB800F054B800F08EB800F06AB957
:1032100000F044B90846114600F0B0B8084600F086
:1032200031B900BF72B60D480268B2FA82F30B2BB7
:1032300010DC4FF00041D94022EA0102026062B680
:10324000074803EBC303DB00C2180021C15010463E
:103250005160704762B60020704700BF4407FF1FEF
:10326000D003FF1F0D4B0E4AC31AA2FB03231B09F9
:103270000B2B0CD80B4A127852B972B60A484FF091
:103280000041026821FA03F31A43026062B67047F4
:10329000064A1278002AF0D0FFF73CB9D003FF1F8E
:1032A000398EE3387913FF1F4407FF1F8413FF1F74
:1032B00038B50F4D286878B143880288C1180133AA
:1032C00093420C7A02D24380204638BDFFF7CAFFF2
:1032D000002320462B6038BD064B1B782BB1032002
:1032E000FFF7E4F828600028E6D14FF0FF3038BD42
:1032F0009813FF1F8413FF1F10B5094C206818B1E5
:1033000043881844007A10BD064B1B782BB103206C
:10331000FFF7CCF820600028F2D14FF0FF3010BD4D
:103320009813FF1F8413FF1F044B054A1B689088E6
:103330001BB11A885B88D31A184470479813FF1F73
:103340000414FF1F0B4B1B789BB110B50A4C20686F
:1033500048B1FFF787FF002303202360FFF7A6F89B
:1033600030B1FFF77FFF0320FFF7A0F80028F8D166
:1033700010BD70478413FF1F9813FF1F2DE9F04FF6
:10338000DFF8F89083B0012289F80020019169B339
:10339000DFF8EC80354F019E8346D8F80000B0B3CB
:1033A000334D4488C4F14001B14228BF314604EB9B
:1033B000010E00221FFA8EFE2A70761AA0F802E093
:1033C00000F1080251B1013C224459441BF8014B61
:1033D00002F8014F8B45F9D1B0F802E0BEF13F0F82
:1033E0000BD8244A05211170002ED6D10198002354
:1033F00089F8003003B0BDE8F08F4022028001461A
:103400000420FFF7EBF80022C8F80020E9E73A783B
:1034100022B3194C164D4FF0010A07E0013C16D0BB
:103420002A78A2B900F0AEF83A78BAB10420FFF7D2
:103430005BF80728F2D889F800A0FFF7F3FEC8F878
:1034400000000028ADD10D4B013C1870E8D10123DC
:103450004FF0FF302B7003B0BDE8F08F00234FF02A
:10346000FF3089F8003003B0BDE8F08F8413FF1FF0
:103470009413FF1F8C13FF1F214801008D13FF1FA2
:103480009013FF1F00B583B002AB012103F8010DBB
:103490001846FFF773FF03B05DF804FB38B50E4D17
:1034A0000E4C28680123237028B140880023237024
:1034B000C0F1400038BD0A4B1B7813B900202070C2
:1034C00038BD0420FFF710F80728F7D8FFF7AAFE49
:1034D00028600028E9D1F1E79013FF1F8D13FF1F2B
:1034E0008413FF1FF8B5114B1B788BB1104E114D93
:1034F000346801272F7064B10F4A63880027177062
:10350000214623800420FFF769F8376000232B70E1
:10351000F8BDFFF787FE084B28B1014604201C7058
:10352000FFF75CF8F2E71F70F0E700BF8413FF1F9E
:103530009013FF1F8D13FF1F8C13FF1F38B50E4B09
:103540001B7873B90D4C216861B103F0FF054B88FE
:103550000B800420FFF742F8256038BD084B01229C
:103560001A7038BDFFF75EFE0028F7D00146BDE8AF
:1035700038400420FFF732B88D13FF1F9013FF1F50
:103580008C13FF1F2DE9F843314E337893B1314F3F
:103590003A787AB90122D9073A7036D49A0719D401
:1035A00000225B073A7005D52B4B1A6812B1EFF376
:1035B00005820AB1BDE8F883EFF3108172B618688E
:1035C00018B1264C2278002A2ED00029F2D162B6FA
:1035D000BDE8F883DFF8908098F80020002ADFD05B
:1035E000DFF88890002405E0013498F80030E4B258
:1035F000A34212D959F824502B6828461B699847D2
:103600000028F1D02B699847EEE7FFF78DFEC8B987
:10361000134B1B781BB93378C0E73378C0E7337896
:1036200003F0FE033370B9E745691D600123237081
:103630005DB1AA6101B962B60025457783689847F4
:103640002570B7E700F0FEF8E2E7064B1D60F1E7F2
:103650004807FF1F9D13FF1FAC13FF1FB013FF1F71
:103660004B07FF1FA813FF1FCC13FF1FB413FF1F2F
:1036700010B4EFF3108272B6437F33B9017F012992
:1036800008D0032910D00123437702B962B65DF850
:10369000044B7047114C2168A1B1114943610B687B
:1036A000836108605861EEE70E4C216881B10E49D4
:1036B00043610B688361086058610C4B4FF0805187
:1036C0001960E0E7064B4161816120601860DAE72C
:1036D000054B4161816120601860EEE7AC13FF1F6C
:1036E000A813FF1FA013FF1FA413FF1F04ED00E08A
:1036F00010B4047F4160022CC26003D05DF8044B1B
:10370000FFF7B6BF83685DF8044B184770B5EFF359
:10371000108272B60C4C206880B10C4E00254369B3
:10372000236073B19D6102B962B64577836898479B
:10373000EFF3108272B620680028F0D102B962B6A9
:1037400070BD3360EFE700BFA013FF1FA413FF1F7E
:10375000FFF7DCBF024A136801331360704700BFF4
:10376000A012FF1F30B42948294A2A4B2A4D602451
:10377000E121047011701B78284C082B30D00A2BE3
:103780002748284937D00C2B0CBF35225D22122345
:103790002A60236002600B60234B24491B78244A73
:1037A000BBB101230B601360224B23491B78234AD2
:1037B000012B26D9042B0FD9082B1ED9102B94BF0F
:1037C000862387230B6013601D4B01221A7030BCC7
:1037D00070470B601360E7E784230B601360F3E727
:1037E00000F58E200F490830212213232A60236020
:1037F00002600B60D0E73922F7E785230B60136086
:10380000E2E780230B601360DEE700BF0040074063
:10381000014007404907FF1F08B003400CB00340B8
:1038200008B00B400CB00B40CE13FF1F20B003407C
:1038300020B00B404A07FF1F24B0034024B00B40C8
:10384000CD13FF1F704700BF10B584B072B6FEF7EE
:1038500027FC184A184B19491160702280211A70F0
:103860001A46197013781B06FCD5154B1C68FEF719
:1038700031FC62B6134B9C429CBF04EB8404640091
:103880002046114C01A90A22FEF73EFC01A9204660
:10389000002311F8012B01333AB10A2B20F8022F33
:1038A000F7D11623237004B010BD5B00DBB2237088
:1038B00004B010BD040002400000024000000741B7
:1038C0000C0002407F969800D807FF1F90F839201F
:1038D00090F83800101A704790F8383090F8392076
:1038E0009A4286BF1B18187E4FF0FF30704700BF0A
:1038F000704700BF38B50546B0F85E0090B195F846
:103900005D301446C3F1210294420CD805F13B000E
:1039100018442246FEF7E4FA95F85D30234485F812
:103920005D30204638BD012014462871EEE700BF07
:10393000B0F85E306BB190F85D30202B07D8C2181C
:10394000013380F85D30012082F83B10704701237D
:1039500003710020704700BF38B50269D478E4B223
:10396000E106054624D51023D37063061FD504F065
:10397000040404F0FF03002C5AD042496A6E00236D
:103980000B7085F85D30002A66D0904795F85D3061
:10399000002B61D02B69D0229A702B6995F83B20BF
:1039A0001A712B69012285F85C200222DA7038BD79
:1039B00004F0400303F0FF00002BD8D19379DBB271
:1039C00003F0600160294ED0937803F0100303F0F8
:1039D000FF01B3B114F0010437D195F85C3095F8CC
:1039E0005D1099424BD9591C2B4485F85C1093F813
:1039F0003B3013712B69D0229A702B690222DA7046
:103A0000D5E785F86010937943F0200393712B6913
:103A100095F839101A791F29D2B2C6D819480078FA
:103A20000028C2D06818013185F839100276BCE749
:103A30002A6985F83930C02393702B69114A1979A6
:103A4000012111700222DA70B1E7C02393702B6953
:103A50001A790222DA70AAE70122002385F85D2094
:103A600085F83B3096E703F0DF039371AB6E23B12B
:103A700085F8380095F8390098472A69A4E7147149
:103A8000B8E700BFCF13FF1F2DE9F047374FDFF82E
:103A9000E0903B68026982B006460093DDF8008042
:103AA00000214FF49675D3789B065BD53B68019354
:103AB000019BC8EB03030F2BF5D949B1102BF2D0B2
:103AC00000209070336980229A7002B0BDE8F087C0
:103AD000726996F8613013440521187AFEF7B4FB39
:103AE000726996F861301344012193F812A0504690
:103AF000FEF7AAFB092400215046FEF79FFB2B4648
:103B0000013BFDD101215046FEF798FB2B46013BBE
:103B1000FDD1013CEFD1706996F8611001444FF47A
:103B200016720C7A4B7B09EBC4011B02496803F443
:103B3000E06343F064030B6096F862300344997CC1
:103B4000DB7D09EBC1011B02496803F4E06343F02C
:103B500064030B60013AFDD13269D3789B064FF0C4
:103B60000101A3D4012002B0BDE8F087A012FF1F1D
:103B7000F45B0000F0B503691222DA7002699378F1
:103B800003F0200385B004460D46002B5ED0B4231D
:103B900093703C4922690B680093009E05E00B6816
:103BA0000193019B9B1B042B42D8D37803F0200385
:103BB00003F0FF00002BF2D094F85D30002B31D0E1
:103BC0004FF0000E4FF0020C04EB0E0393F83B3065
:103BD00013710B680393039F206907E09B060DD5C3
:103BE0000B680293029BDB1B052B28D8C378DBB242
:103BF00003F0020202F0FF06002AEFD080F803C0B3
:103C00002669F378DBB2DF0632462DD49F062BD52A
:103C1000DB0731D40EF1010E94F85D305FFA8EFEB1
:103C20007345D1D800201DBB002384F85E3004E02A
:103C30009070236980229A70042005B0F0BD8670D0
:103C40002369802204209A7005B0F0BD03F0FF06BE
:103C5000FFF71AFF10B9042005B0F0BD236984F8FE
:103C60005F60B0229A7094E78023B3700420DAE793
:103C700026698023B370D7E7BEF1000F0CBF022086
:103C80000320F6E7A012FF1F2DE9F0410669002589
:103C9000122780F8385080F83950F770D0F810C0EB
:103CA0009CF802E00EF0200E88B0044688461546C7
:103CB0001E46BEF1000F49D0B4238CF802307A4B77
:103CC00021691A680092DDF800E006E01A680192A6
:103CD0000198CEEB0000042830D8C87800F020000E
:103CE00000F0FF070028F1D04FEA480242F001023D
:103CF000D2B20A711A680292DDF808E0206906E083
:103D00001A6803920399CEEB010105292AD8C178DC
:103D100001F0020101F0FF070029F1D04FF0020C81
:103D200080F803C02269D17811F0110722D12DBB90
:103D3000002E0CBFA0238023937003E08F702369B3
:103D400080229A70384608B0BDE8F0810EF0FF0777
:103D5000FFF79AFE0028F5D0236984F85F70B0223F
:103D60009A70ACE787702369802238469A7008B051
:103D7000BDE8F081802393700027E3E7012D78D020
:103D8000A021917021690A79BE4667464FF0A80CC0
:103D90001A680492049805E01A680592059A121AA6
:103DA000052A4DD8CA7802F0020202F0FF08002A64
:103DB000F2D0CF702169CA78D2B212F0100F084643
:103DC0005DD192065BD5013DEDB2012D4CD0BEF127
:103DD0001F0F3ED90A79012DDAD11A680692069D85
:103DE00005E01A680792079A521B052A56D8C2782E
:103DF00002F0020202F0FF01002AF2D00223C37097
:103E00002269D378DBB2D9063BD49B0637D5B023E1
:103E1000BEF11F0F937043D8226904EB0E03127991
:103E20001A760EF1010E5FFA8EFE00BF00BF00BFD2
:103E300016B1236980229A7084F839E0774681E7C9
:103E400081F80280236980229A70774684F839E0ED
:103E500078E704EB0E0291F8048082F818800EF1E6
:103E6000010E5FFA8EFEB6E781F802C021690846AE
:103E7000ADE7A82191702069BE460279ADE777468B
:103E800060E710214FF49673D170013BFDD1226998
:103E9000937803F0F7037746937053E78170D1E787
:103EA00023691B79C1E700BFA012FF1F0148FFF77C
:103EB00053BD00BF5C08FF1F0148FFF74DBD00BFA9
:103EC000C808FF1F0148FFF747BD00BFF007FF1FED
:103ED000F0B4464B464A986B5C6B017911704549CA
:103EE00022790A701A6B00790870002A46D0596846
:103EF000C9688A423ED82168CC8B240402F1FF3085
:103F000065D4C0F30E00C883C88B80B2C882996B99
:103F10000968C88B000452D4C2F30E00C883C88B52
:103F2000002480B212F1FF32C88218BF01221C6344
:103F3000596B2E4809680D6800F12C04A54236D053
:103F40000068C46814F0804F0C680D6815BF2488A1
:103F500024780235013544F000440D604463996BC8
:103F6000254B09791970214912B14A6B12791A70DF
:103F7000F0BC7047521A1A630122D9E7D86B19684E
:103F800005681E4C0A63CC62CC682D681C4E24F078
:103F900080440327B542CC6083F82D701FD1037F86
:103FA0004260022BC2601ED0F0BCFFF761BB01680B
:103FB00090F82C00CC6840F000404863CFE7CC8BF1
:103FC000C2F3080004F47E442043C883A7E7CC8BE7
:103FD000C0F3080004F47E442043C88394E72B46D2
:103FE0001146F0BC18478368F0BC18473409FF1F1E
:103FF0001F8000401C8000401B80004000000FFF1D
:10400000F136000090E80C00F0B41C68596825688F
:10401000164F174E29432160164D17491760D66079
:1040200015611160417A154A5C180C3194F82C40E6
:1040300053F8215002EBC40149680D60017A5C1805
:1040400003EB8101247ECD6902EBC40149680D6058
:10405000817A581803EB810390F84000596C02EB09
:10406000C002F0BC53681960704700BF01401F00D8
:10407000011000380110007800001F80F45B000080
:104080004268036805CA10B4046822430260DA6813
:1040900089B942F08072D9688A4209D01968480407
:1040A0000CD40A48186042F08040DA601861196048
:1040B0005DF8044B704722F08072ECE742F08041DB
:1040C000DA605DF8044B1961704700BF01401F00C2
:1040D00043680CCB11680B43136070474268036858
:1040E00005CA10B4046822430260D868840100F055
:1040F000E06205D5080900F4706021F470410143C5
:10410000D8681143814209D01A68500409D408487C
:10411000186041F08040D96018611A605DF8044B66
:10412000704741F08042D9605DF8044B1A617047D6
:1041300001401F0010B52DED028B2B4C8AB0B0EE64
:10414000408A00F0AFF894F900300133F0EE408A75
:1041500038D0B4EE488AF1EE10FA33D6B0EE480A01
:1041600000F08AFBF7EE007AB4EEE70AF1EE10FAFF
:1041700028DD01231D4A009318EE100A0023019246
:10418000089300F0E5FC02460B461948CDE90423EC
:10419000CDE9022300F08CFA94F90030022B8DED6A
:1041A000060B15D0684600F081FA88B1089BB3B9B8
:1041B000DDE9060100F0F0FF00EE100A0AB0BDECE8
:1041C000028B10BDB0EE680A0AB0BDEC028B10BDC8
:1041D00001F032F821230360089B002BE8D001F0A6
:1041E0002BF8089B0360E3E77409FF1F8C5F000056
:1041F000CC5B000000F052B910B52DED028B8AB0F7
:10420000B0EE408A00F000FA244B93F90040631CA2
:1042100009D0B4EE488AF1EE10FA04D6B5EEC08AA1
:10422000F1EE10FA03D40AB0BDEC028B10BD0123ED
:104230001B4A009318EE100A00230192089300F025
:1042400087FC0022CDE90401CDE902010023BCB1C5
:104250001046194600F0FAFD022CCDE9060111D1F5
:1042600000F0EAFF21230360089B8BB9DDE906011A
:1042700000F092FF00EE100A0AB0BDEC028B10BDF8
:10428000CDE90623684600F011FA0028ECD1E7E7F3
:1042900000F0D2FF089B0360E8E700BF7409FF1F2E
:1042A000945F000038B510EE105A25F00044B4F1C8
:1042B0007E5F2DED048B00F0918079DCB4F17C5FA2
:1042C0000EDAB4F1485F80F29680DFED647A70EE2A
:1042D000277AB7EE007AF4EEC77AF1EE10FA6BDCCB
:1042E00000F0CAFAB7EE007A37EE400AB6EE008A5E
:1042F00020EE088ADFED5A2ADFED5A3A9FED5A3A4E
:10430000DFED5A4A9FED5A4ADFED5A5A9FED5A5A4D
:104310009FED5A6ADFED5A6ADFED5A7AE8EE223AEB
:10432000A8EE034AE8EE234AA8EE045AE8EE245A1F
:10433000E8EE056AA8EE256AA8EE267AE8EE067A87
:10434000B0EE480AB0EE479A67EE888A00F05CF952
:104350004D4B9C4233DC10EE103A23F47F6323F084
:104360000F0307EE903AB1EE676AA6EE278A70EE69
:10437000277AC8EE895A88EE275A9FED447ADFEDF6
:10438000447AF0EE006AA5EE667A30EE000AB0EEEE
:10439000675AA6EE265A95EE807A37EE450A37EE32
:1043A000C00ABDEC048B002DD8BFB1EE400A38BD69
:1043B00070EE407A87EEA70ABDEC048B38BDC8EEDC
:1043C000896A9FED347ADFED347AA0EE260AF0EEAA
:1043D000006AA0EE267A37EEC70AE2E7DFED2B7A15
:1043E0009FED2D7A60EE277ABDEC048BE0EE077A24
:1043F000B0EE670A38BD60EE007ADFED192ADFED16
:10440000193ADFED1A4A9FED183A9FED194ADFED90
:10441000196A9FED195ADFED195A9FED196A9FED40
:10442000197AE7EEA23ABDEC048BE7EEA34AA7EEB9
:10443000834AE7EEA46AA7EE845AE7EEA65AA7EEEF
:10444000856AA7EEA57AF7EE006AE7EE866A67EE60
:10445000277A87EEA67AA0EE070A38BDCAF249711C
:1044600008EF1138047F4F3A2EC69D3D461124BDFA
:10447000613330BFA80A4E3E2D57014090B0A6BE12
:1044800039D119C0ABAA2A3E9999793F2EBD3BB3C9
:10449000DB0F493F2EBD3B33DB0FC93F10B582B068
:1044A000CDED010A019B23F00042B2F1FF4FF0EE87
:1044B000407A19DC10EE100A20F00041B1F1FF4FF4
:1044C00012DCB3F17E5F49D09C1704F0020444EA89
:1044D000D07479B9022C3ED09FED400A032C18BF4E
:1044E000B0EE670A02B010BD9DED017A37EE270AE3
:1044F00002B010BD12B3B2F1FF4F34D0B1F1FF4F93
:104500001CD08A1AD2153C2A22DC002B4BDB9DEDF5
:10451000010A87EE800A00F0AFF900F0D1F8012C13
:104520003AD0022C2FD0002CE2D09FED2D7ADFED77
:104530002D7A30EE070A30EE670AD9E7DFED2A7AE6
:104540009FED2A0A0028A8BFB0EE670A02B010BD8E
:104550009FED250AE3E79FED230AC9E702B0BDE816
:10456000104000F0ADB8B1F1FF4F21D0022CF2D0D5
:10457000032C2AD0DFED1E7A9FED1E0A012C08BF06
:10458000B0EE670AB4E79FED167ADFED167A30EEEB
:10459000070A37EEC00AABE710EE103A03F100430A
:1045A00000EE103AA4E73C32B1DA9FED120AB6E70A
:1045B000022C10D0032C0BD0DFED0F7A9FED0F0AE9
:1045C000012C08BFB0EE670A92E79FED040A8FE75F
:1045D0009FED0B0A8CE79FED0B0A89E7DB0F49C0C3
:1045E0002EBDBB33DB0F4940DB0FC93FDB0FC9BF1B
:1045F0000000008000000000DB0F49BFDB0F493FD7
:10460000E4CB16C0E4CB164010EE103A23F0004283
:10461000B2F1FF4F70B430D26AB3002B3DDBB2F57C
:10462000000F4FEAE3502CD3A0F17F02C3F316032F
:10463000D10743F4000348BF5B00002456105B0021
:10464000254619214FF08072A818984202DC1B1AE7
:104650008518144401394FEA43034FEA5202F3D15B
:1046600013B104F001031C44641004F17C5404EB06
:10467000C65300EE103A70BC7047A0EE000A70BC42
:10468000704713F4000201D00CE00A465B001C02E4
:1046900002F10101F9D5801AC6E770EE407A87EE83
:1046A000A70AE8E74FF0FF32F5E700BF00207047A8
:1046B0009FED010B704700BF000000000000F87F75
:1046C00038B510EE105A25F00044B4F1A14FF0EEC9
:1046D000407A0BDBB4F1FF4F58DCDFED547A9FEDED
:1046E000540A002DC8BFB0EE670A38BD514B9C423A
:1046F0005DDCB4F1445F4CDB4FF0FF3367EEA75A4B
:104700009FED4D1A9FED4D2A9FED4D3ADFED4D1A6D
:10471000DFED4D2A9FED4D4ADFED4D3A9FED4D5AAD
:10472000DFED4D4A9FED4D6ADFED4D6A25EEA57A2E
:104730005A1CA7EE012AE7EE212AA7EE023AE7EE7D
:10474000223AA7EE034AE7EE234AA7EE045AE7EE21
:10475000246AA7EE056A26EE877A66EE256A3ED0C1
:10476000404A41499B001A4476EE876A92ED007AEE
:1047700097EEA67A0B44002D93ED000A77EE677A48
:1047800070EE677A28DBB0EE670A38BD30EE000ABB
:1047900038BD9FED367A30EE077AF7EE006AB4EE58
:1047A000E67AF1EE10FAA7DDB0EE670A38BD00F048
:1047B00063F82F4B9C4219DCA3F5D0039C422ADC02
:1047C000F0EE007ABFEE007AA0EE277A002330EEFA
:1047D000270AC7EE007A91E7B1EE670A38BD76EE98
:1047E000876AE7EEE67AB0EE670A38BD214B9C4255
:1047F0000BDCF7EE087AB7EE007AA0EE277A0223F8
:1048000030EE670AC0EE077A78E7BFEE007AC7EEAF
:10481000007A032372E7F7EE007A30EE677A30EE23
:10482000270A0123C7EE007A68E700BFDB0FC93F04
:10483000DB0FC9BFFFFFDF3ED769853C59DA4B3D2F
:10484000356B883D21A215BD6BF16EBD6E2EBA3D54
:1048500095879DBD2549123E388EE3BDABAAAA3E81
:10486000CDCC4CBE9C5F0000AC5F0000CAF2497129
:10487000FFFF973FFFFF1B4010EE103A23F000436D
:1048800000EE103A704700BF81F0004102E000BF27
:1048900083F0004330B54FEA41044FEA430594EA00
:1048A000050F08BF90EA020F1FBF54EA000C55EA3B
:1048B000020C7FEA645C7FEA655C00F0E2804FEA0C
:1048C0005454D4EB5555B8BF6D420CDD2C4480EAEE
:1048D000020281EA030382EA000083EA010180EA1E
:1048E000020281EA0303362D88BF30BD11F0004F6C
:1048F0004FEA01314FF4801C4CEA113102D04042A2
:1049000061EB410113F0004F4FEA03334CEA1333DC
:1049100002D0524263EB430394EA050F00F0A780F4
:10492000A4F10104D5F1200E0DDB02FA0EFC22FAEF
:1049300005F2801841F1000103FA0EF2801843FAE3
:1049400005F359410EE0A5F120050EF1200E012AD4
:1049500003FA0EFC28BF4CF0020C43FA05F3C01812
:1049600051EBE37101F0004507D54FF0000EDCF18B
:10497000000C7EEB00006EEB0101B1F5801F1BD334
:10498000B1F5001F0CD349085FEA30004FEA3C0C38
:1049900004F101044FEA445212F5800F80F09A802E
:1049A000BCF1004F08BF5FEA500C50F1000041EB32
:1049B000045141EA050130BD5FEA4C0C404141EB36
:1049C000010111F4801FA4F10104E9D191F0000F5D
:1049D00004BF01460020B1FA81F308BF2033A3F1E0
:1049E0000B03B3F120020CDA0C3208DD02F1140CD7
:1049F000C2F10C0201FA0CF021FA02F10CE002F112
:104A00001402D8BFC2F1200C01FA02F120FA0CFC0A
:104A1000DCBF41EA0C019040E41AA2BF01EB045153
:104A2000294330BD6FEA04041F3C1CDA0C340EDC51
:104A300004F11404C4F1200220FA04F001FA02F394
:104A400040EA030021FA04F345EA030130BDC4F152
:104A50000C04C4F1200220FA02F001FA04F340EA47
:104A60000300294630BD21FA04F0294630BD94F0F8
:104A7000000F83F4801306BF81F480110134013DDF
:104A80004EE77FEA645C18BF7FEA655C29D094EA50
:104A9000050F08BF90EA020F05D054EA000C04BFCE
:104AA0001946104630BD91EA030F1EBF00210020B9
:104AB00030BD5FEA545C05D14000494128BF41F058
:104AC000004130BD14F580043CBF01F5801130BDBC
:104AD00001F0004545F0FE4141F470014FF0000047
:104AE00030BD7FEA645C1ABF194610467FEA655CF8
:104AF0001CBF0B46024650EA013406BF52EA03359A
:104B000091EA030F41F4002130BD00BF90F0000F87
:104B100004BF0021704730B54FF4806404F13204C3
:104B20004FF000054FF0000150E700BF90F0000F7C
:104B300004BF0021704730B54FF4806404F13204A3
:104B400010F0004548BF40424FF000013EE700BF73
:104B500042004FEAE2014FEA31014FEA02701FBF03
:104B600012F07F4393F07F4F81F06051704792F0D5
:104B7000000F14BF93F07F4F704730B54FF460744F
:104B800001F0004521F0004120E700BF50EA01029A
:104B900008BF704730B54FF000050AE050EA010247
:104BA00008BF704730B511F0004502D5404261EBB7
:104BB00041014FF4806404F132045FEA915C3FF4F8
:104BC000DCAE4FF003025FEADC0C18BF03325FEA91
:104BD000DC0C18BF033202EBDC02C2F1200300FA46
:104BE00003FC20FA02F001FA03FE40EA0E0021FA6B
:104BF00002F11444C1E600BF70B54FF0FF0C4CF455
:104C0000E06C1CEA11541DBF1CEA135594EA0C0F0A
:104C100095EA0C0F00F0DEF82C4481EA030621EA45
:104C20004C5123EA4C5350EA013518BF52EA033580
:104C300041F4801143F4801338D0A0FB02CE4FF032
:104C40000005E1FB02E506F00042E0FB03E54FF062
:104C50000006E1FB03569CF0000F18BF4EF0010E5A
:104C6000A4F1FF04B6F5007F64F5407404D25FEA56
:104C70004E0E6D4146EB060642EAC62141EA555109
:104C80004FEAC52040EA5E504FEACE2EB4F1FD0C4B
:104C900088BFBCF5E06F1ED8BEF1004F08BF5FEAC9
:104CA000500E50F1000041EB045170BD06F000467B
:104CB00046EA010140EA020081EA0301B4EB5C0428
:104CC000C2BFD4EB0C0541EA045170BD41F4801120
:104CD0004FF0000E013C00F3AB8014F1360FDEBF45
:104CE000002001F0004170BDC4F10004203C35DA21
:104CF0000C341BDC04F11404C4F1200500FA05F3A4
:104D000020FA04F001FA05F240EA020001F0004244
:104D100021F0004110EBD37021FA04F642EB0601BA
:104D20005EEA430E08BF20EAD37070BDC4F10C04E4
:104D3000C4F1200500FA04F320FA05F001FA04F2A8
:104D400040EA020001F0004110EBD37041F1000194
:104D50005EEA430E08BF20EAD37070BDC4F120059F
:104D600000FA05F24EEA020E20FA04F301FA05F207
:104D700043EA020321FA04F001F0004121FA04F2AF
:104D800020EA020000EBD3705EEA430E08BF20EA7F
:104D9000D37070BD94F0000F0FD101F000464000B9
:104DA00041EB010111F4801F08BF013CF7D041EA3B
:104DB000060195F0000F18BF704703F0004652003F
:104DC00043EB030313F4801F08BF013DF7D043EA10
:104DD0000603704794EA0C0F0CEA135518BF95EAC6
:104DE0000C0F0CD050EA410618BF52EA4306D1D14D
:104DF00081EA030101F000414FF0000070BD50EA6C
:104E0000410606BF1046194652EA430619D094EAF5
:104E10000C0F02D150EA013613D195EA0C0F05D1DF
:104E200052EA03361CBF104619460AD181EA030133
:104E300001F0004141F0FE4141F470014FF00000EB
:104E400070BD41F0FE4141F4780170BD70B54FF086
:104E5000FF0C4CF4E06C1CEA11541DBF1CEA135506
:104E600094EA0C0F95EA0C0F00F0A7F8A4EB0504E8
:104E700081EA030E52EA03354FEA013100F08880DF
:104E80004FEA03334FF0805545EA131343EA1263A8
:104E90004FEA022245EA111545EA10654FEA00265D
:104EA0000EF000419D4208BF964244F1FD0404F516
:104EB000407402D25B084FEA3202B61A65EB030572
:104EC0005B084FEA32024FF480104FF4002CB6EB2F
:104ED000020E75EB030E22BFB61A754640EA0C00AF
:104EE0005B084FEA3202B6EB020E75EB030E22BFEF
:104EF000B61A754640EA5C005B084FEA3202B6EB30
:104F0000020E75EB030E22BFB61A754640EA9C00EE
:104F10005B084FEA3202B6EB020E75EB030E22BFBE
:104F2000B61A754640EADC0055EA060E18D04FEA7C
:104F3000051545EA16754FEA06164FEAC30343EA1C
:104F400052734FEAC2025FEA1C1CC0D111F4801FE9
:104F50000BD141EA00014FF000004FF0004CB6E7E2
:104F600011F4801F04BF01430020B4F1FD0C88BF81
:104F7000BCF5E06F3FF6AFAEB5EB030C04BFB6EB8C
:104F8000020C5FEA500C50F1000041EB045170BD7F
:104F90000EF0004E4EEA113114EB5C04C2BFD4EBAC
:104FA0000C0541EA045170BD41F480114FF0000E30
:104FB000013C90E645EA060E8DE60CEA135594EAAC
:104FC0000C0F08BF95EA0C0F3FF43BAF94EA0C0FAF
:104FD0000AD150EA01347FF434AF95EA0C0F7FF424
:104FE00025AF104619462CE795EA0C0F06D152EA78
:104FF00003353FF4FDAE1046194622E750EA41065C
:1050000018BF52EA43067FF4C5AE50EA41047FF46C
:105010000DAF52EA43057FF4EBAE12E74FF0FF3CD1
:1050200006E000BF4FF0010C02E000BF4FF0010CA2
:105030004DF804CD4FEA410C7FEA6C5C4FEA430C1B
:1050400018BF7FEA6C5C1BD001B050EA410C0CBF6A
:1050500052EA430C91EA030F02BF90EA020F0020CC
:10506000704710F1000F91EA030F58BF994208BF33
:1050700090422CBFD8176FEAE37040F001007047F0
:105080004FEA410C7FEA6C5C02D150EA013C07D147
:105090004FEA430C7FEA6C5CD6D152EA033CD3D092
:1050A0005DF8040B704700BF8446104662468C468C
:1050B0001946634600E000BF01B5FFF7B7FF0028BF
:1050C00048BF10F1000F01BD4DF808EDFFF7F4FFE8
:1050D0000CBF012000205DF808FB00BF4DF808ED73
:1050E000FFF7EAFF34BF012000205DF808FB00BF96
:1050F0004DF808EDFFF7E0FF94BF012000205DF8B8
:1051000008FB00BF4DF808EDFFF7CEFF94BF01206C
:1051100000205DF808FB00BF4DF808EDFFF7C4FF65
:1051200034BF012000205DF808FB00BF4FEA410CAE
:105130007FEA6C5C02D150EA013C0AD14FEA430C91
:105140007FEA6C5C02D152EA033C02D14FF00000CE
:1051500070474FF0010070474A0011D212F500125B
:1051600011D20DD56FF47873B3EB62520ED44FEABF
:10517000C12343F0004343EA505323FA02F070473F
:105180004FF00000704750EA013002D14FF0FF307D
:1051900070474FF0000070474FEA4102B2F1E04320
:1051A00024BFB3F5001CDCF1FE5C0DD901F0004C0E
:1051B0004FEAC0024CEA5070B2F1004F40EB83005E
:1051C00008BF20F00100704711F0804F21D113F18A
:1051D0003872BCBF01F00040704741F480114FEAC3
:1051E0005252C2F11802C2F1200C10FA0CF320FA4C
:1051F00002F018BF40F001004FEAC1234FEAD32369
:1052000003FA0CFC40EA0C0023FA02F34FEA4303D2
:10521000CCE77FEA625307D150EA01331EBF4FF05B
:10522000FE4040F44000704701F0004040F0FE4076
:1052300040F40000704700BF014B1868704700BF82
:10524000A00DFF1F70B50F4E0F4D761BB61018BF87
:10525000002405D0013455F8043B9847A642F9D103
:105260000A4E0B4D761B00F0ABFEB61018BF0024A3
:1052700006D0013455F8043B9847A642F9D170BDD9
:1052800070BD00BFCC5F0000CC5F0000D85F0000A5
:10529000CC5F0000024B0146186800F003B800BF65
:1052A000A00DFF1F2DE9F04F01F10B05162D83B066
:1052B000064640F29F8035F0070500F1BF80A94205
:1052C00000F2BC8000F0A6FAB5F5FC7FC0F09C822D
:1052D0006B0A00F0BA80042B00F28381A80900F168
:1052E000390E4FEA4E033830C44F07EB8303A3F166
:1052F00008015C68A14207D1ACE0002A80F2AC80D2
:10530000E468A14200F0A680636823F003035A1BFF
:105310000F2AF2DDB9493C6901F1080E744500F02D
:10532000B381636823F003035A1B0F2A00F39981AA
:10533000002AC1F814E0C1F810E080F29E80B3F5B5
:10534000007F80F06781DB0803F1010C01229B10D4
:1053500002FA03F34A6851F83C80C4F8088001EB74
:10536000CC091A43A9F10803E3604A6041F83C40C4
:10537000C8F80C40831001249C40944200F28A80BB
:10538000144206D120F003006400144200F104002E
:10539000FAD007EBC009CC468046DCF80C108C45EF
:1053A00007D173E1002A80F28181C9688C4500F041
:1053B0006D814B6823F003035A1B0F2AF2DD0C4664
:1053C000D1F80CC054F8088F4B1945F001054D6019
:1053D00042F00101C8F80CC03046CCF808807B616F
:1053E0003B61C3F80CE0C3F808E059609A5000F044
:1053F00013FA1FE0102921D800F00CFA102506231B
:1054000002207E4F07EB8303A3F108025C689442FD
:1054100000F045816368E168A56823F00303234435
:1054200030465A68E96042F001028D605A6000F02F
:10543000F3F90834204603B0BDE8F08F00240C23B4
:105440002046336003B0BDE8F08F80234FF0400E5C
:105450003F2049E770465DE72344E1685A68A56844
:1054600042F00102E96030468D605A6000F0D4F9E4
:105470000834204603B0BDE8F08F234430465A6814
:1054800042F001025A6000F0C7F90834204603B028
:10549000BDE8F08FBC68636823F00308A84504D317
:1054A000C5EB08030F2B00F38C80554BDFF86091A0
:1054B0001A68D9F8003001332A4404EB080A00F0D6
:1054C000608102F580520F3222F47F6222F00F02D7
:1054D00011463046019200F0A1F9B0F1FF3F83463A
:1054E000019A00F05881824500F2FC80454B196812
:1054F000DA451144196000F05381D9F80000DFF853
:1055000010E101301BBFCAEB0B0A5144CEF800B0CA
:1055100019601BF0070100F01781C1F10800C1F507
:105520008051834408315A44C2F30B02C2EB010993
:1055300049463046019300F071F9431C019B00F08D
:105540003F81CBEB00024A4442F001021968C7F8E0
:1055500008B04944BC42CBF804201960DFF8A4909D
:1055600016D0B8F10F0F40F2FD806268A8F10C036D
:1055700023F00703E01802F001024FF0050E1A4372
:105580000F2B6260C0F804E0C0F808E000F21C8154
:105590001D4BBC681A68914288BF19601B4B1A6882
:1055A0009142626888BF196022F003029542A2EB23
:1055B000050301D80F2B04DC304600F02DF9002440
:1055C00038E7621943F0010345F001056560304694
:1055D000BA60536000F020F90834204603B0BDE8FB
:1055E000F08F142B71D9542B00F2A480280B00F1FA
:1055F0006F0E4FEA4E036E3076E600BFA40DFF1F1C
:10560000D813FF1FDC13FF1FD413FF1FD013FF1F7E
:10561000B011FF1F5A0A042A5ED9142A00F2B3807F
:1056200002F15C0149005B3207EB810C57F8211055
:10563000DFF8DC81ACF1080C8C4500F088804A680A
:1056400022F00302934202D289688C45F7D1D1F847
:105650000CC07A68C4F80CC0A160CCF80840CC60DB
:1056600088E6631942F0010745F0010565603046A0
:105670004B610B61C3F80CE0C3F808E05F609A501F
:10568000083400F0C9F8D5E64A6873E608F1010865
:1056900018F0030F0CF1080C7FF47FAE30E0DC68EB
:1056A000A34208BF02303FF435AEB3E60B440C46CC
:1056B0005A68C96854F8085F42F001025A603046DF
:1056C000E9608D6000F0A8F8B4E603F15C0E03F128
:1056D0005B004FEA4E0307E69A0902F139014900DF
:1056E0003832A1E7BC424A4B3FF400AF9C68626885
:1056F00022F003025AE759F80839994540F08280B0
:1057000010F0030F00F1FF30F5D17B6823EA0403AA
:105710007B6064009C423FF6BDAE002C3FF4BAAE05
:105720001C4240467FF435AE64001C4200F1040088
:10573000FAD02EE6B3F5AA7F18D8E80B00F1780E60
:105740004FEA4E037730CFE54FF48051EBE601216D
:10575000D8F80430921001FA02F21A43C8F8042073
:10576000614677E70123CBF8043025E740F2545235
:10577000934220D8A80C00F17D0E4FEA4E037C30F6
:10578000B2E51032A4E6542A26D81A0B02F16F01B2
:1057900049006E3248E7BC68626822F0030205E700
:1057A000CAF30B0000287FF4A8AE4244BB6842F065
:1057B00001025A60ECE6FE234FF07F0E7E2093E557
:1057C00001224FF00009C1E604F10801304600F063
:1057D000A9F8D9F80010DBE6B2F5AA7F05D8DA0BF4
:1057E00002F17801490077321EE740F254518A42B3
:1057F00005D89A0C02F17D0149007C3214E7FE21A4
:105800007E2211E77B6884E7E808431C5B00F8E52B
:10581000A40DFF1F704700BF704700BF38B5074C8D
:105820000023054608462360FCF724FC431C00D0F7
:1058300038BD2368002BFBD02B6038BD1814FF1F28
:10584000024B13B1024800F005B870470000000099
:1058500061580000002301461A46184600F04AB974
:1058600038B5074D074C2C1BA41005D0013C55F84A
:10587000043D9847002CF9D1BDE8384000F0ACBB9E
:105880000000000000000000F8B5234F0C4606465B
:10589000FFF7C0FFBB685D6825F00305291B01F613
:1058A000EF7121F47F6121F00F01A1F58054B4F56F
:1058B000805F07DB00213046FFF7B0FFBB682B4459
:1058C000984204D03046FFF7A7FF0020F8BD6142A0
:1058D0003046FFF7A3FF01300DD0104BBA681968AE
:1058E0002D1B45F001053046091B55601960FFF777
:1058F00093FF0120F8BD00213046FFF78FFFBA6803
:10590000831A0F2BDEDD064C0449246843F00103A3
:10591000001B53600860D5E7A40DFF1FDC13FF1FB9
:10592000B011FF1F002945D02DE9F0410D468046FA
:10593000FFF770FF55F8047C6A4927F00103A5F1D1
:105940000804E2188E685068B24220F0030062D06A
:10595000FE0750600BD455F8087CE41B01F1080EDB
:10596000A56875453B446FD0E768EF60BD601518CA
:105970006D68ED0742D543F001026260E350B3F574
:10598000007F18D2DB085A1C4D6851F83270A760AE
:1059900001209B1000FA03F301EBC2001D430838FD
:1059A000E0604D6041F83240FC604046BDE8F041A7
:1059B000FFF732BF70475A0A042A53D89A0902F1F6
:1059C00039077F0002F1380501EB870051F82720E5
:1059D0004449083890424DD0516821F003018B4270
:1059E00002D292689042F7D1D068E060A2608460F1
:1059F000D4604046BDE8F041FFF70EBF95683A4FCE
:105A0000BD4203443FD0D068E86043F001028560A6
:105A10006260E350B3E7FF07034407D455F8082C4E
:105A2000A41A1344A068E268C26090602F4A12680A
:105A300043F00100934260608C60B6D32C4B40462B
:105A40001968FFF721FFB0E711184968C90744D466
:105A50009168D268CA60034443F0010091606060BD
:105A6000E350A2E7142A17D802F15C077F0002F185
:105A70005B05A9E7AA104B68012505FA02F213435A
:105A80004B600246B1E743F001024C610C61E560F6
:105A9000A5606260E35088E7542A06D81A0B02F129
:105AA0006F077F0002F16E058EE7B2F5AA7F06D878
:105AB000DA0B02F178077F0002F1770584E740F204
:105AC0005450824206D89A0C02F17D077F0002F101
:105AD0007C0579E7FE277E2576E743F001026260C8
